:100000000C943A010C9459010C9459010C94590127
:100010000C9459010C9459010C9459010C945901F8
:100020000C9459010C9459010C9459010C945901E8
:100030000C9459010C9459010C9459010C945901D8
:100040000C9459010C9459010C9459010C945901C8
:100050000C9459010C9459010C9459010C945901B8
:100060000C9459010C9459010C9459010C945901A8
:100070000C9459010C9459010C9459010C94590198
:100080000C9459010C9459010C9459010C94590188
:100090000C9459010C945901000000000000005F0D
:1000A00000000003000300143E143E14242A7F2A9B
:1000B000124333086661364955225000050300009B
:1000C000001C2241000041221C0014083E081408B4
:1000D000083E0808005030000008080808080060C2
:1000E00060000020100804023E5149453E00040211
:1000F0007F00426151494622414949361814127F16
:100100001027454545393E494949320101710907E2
:100110003649494936264949493E003636000000ED
:10012000563600000814224100141414141400411F
:1001300022140802015109063E4159555E7E090903
:10014000097E7F494949363E414141227F41414133
:100150003E7F494949417F090909013E4141493AE8
:100160007F0808087F00417F4100304040403F7FCA
:10017000081422417F404040407F020C027F7F02F2
:1001800004087F3E4141413E7F090909061E2121A5
:10019000215E7F09090976264949493201017F011B
:1001A000013F4040403F1F2040201F7F2010207F04
:1001B00041221C224107087008076151494543004C
:1001C0007F41000002040810200000417F0004026B
:1001D0000102044040404040000102040020545409
:1001E00054787F4444443838444444443844444474
:1001F0007F385454541804047E0505085454543C64
:100200007F0804047800447D40002040443D007F86
:100210001028440000417F40007C047804787C086A
:1002200004047838444444387C1414140808141422
:10023000147C007C080404485454542004043F44B3
:10024000443C4040207C1C2040201C3C4030403C32
:1002500044281028440C5050503C4464544C4400F2
:100260000836414100007F0000414136080002018C
:100270000204020011241FBECFEFD0E2DEBFCDBFCB
:1002800012E0A0E0B1E0E0E9F0E300E00BBF02C063
:1002900007900D92AE31B107D9F712E0AEE1B2E0AE
:1002A00001C01D92A033B107E1F70E94610C0C94CC
:1002B00046180C9400002F923F924F925F926F92DB
:1002C0007F928F929F92AF92BF92CF92DF92EF92E6
:1002D000FF920F931F93CF93DF933B014C01EA01F1
:1002E00060E070E080E89FE3A40193010E94BB10EE
:1002F0007B018C0120E030E040E450E40E941911C1
:100300001B012C01C801B701A80197010E94191116
:10031000A80197010E9419115B016C016881798124
:1003200080E090E00E9401149B01AC01C601B50180
:100330000E9419115B016C01C201B101A801970172
:100340000E941911A40193010E9419117B018C01D3
:100350006A817B8180E090E00E9401149B01AC01E6
:10036000C801B7010E9419119B01AC01C601B5017A
:100370000E94EC105B016C01C201B101A401930168
:100380000E941911A40193010E9419117B018C0193
:100390006C817D8180E090E00E9401149B01AC01A2
:1003A000C801B7010E9419119B01AC01C601B5013A
:1003B0000E94EC105B016C01C401B301A401930124
:1003C0000E941911A40193010E9419117B018C0153
:1003D0006E817F8180E090E00E9401149B01AC015E
:1003E000C801B7010E9419119B01AC01C601B501FA
:1003F0000E94EC100E94AD13882777FD8095982FFE
:100400000E944F1320E030E040E05FE30E94EC10D8
:100410000E94AD13CB01DF91CF911F910F91FF90FF
:10042000EF90DF90CF90BF90AF909F908F907F9094
:100430006F905F904F903F902F9008952F923F9232
:100440004F925F926F927F928F929F92AF92BF92E4
:10045000CF92DF92EF92FF920F931F93DF93CF9390
:1004600000D000D000D0CDB7DEB71C017E836D83F5
:100470005A8349832801390160E070E080E090E010
:10048000A1010E945B018B839C8360E070E080E0AF
:1004900090E04D815E810E945B018C01530142011D
:1004A00026C0C501B401A1010E945B01D82EC92E4E
:1004B000C501B4014D815E810E945B01F82EE92ED9
:1004C0008B819C81B8014D2D5C2D2F2D3E2D0981F6
:1004D0001A810E94BF04C501B401A30192010E94C8
:1004E000EC104B015C010F2D1E2DDB82CC82C30171
:1004F000B20120E030E040E85FE30E94EC109B0195
:10050000AC01C501B4010E941F1387FDCACF269616
:100510000FB6F894DEBF0FBECDBFCF91DF911F9114
:100520000F91FF90EF90DF90CF90BF90AF909F9092
:100530008F907F906F905F904F903F902F90089595
:100540002F923F924F925F926F927F928F929F92E3
:10055000AF92BF92CF92DF92EF92FF920F931F93D1
:10056000DF93CF93CDB7DEB760970FB6F894DEBFB9
:100570000FBECDBF9C838B837E836D8358874F8353
:1005800009871A872B873C8760E070E080E090E065
:100590004B815C810E945B015C0160E070E080E067
:1005A00090E04D815E810E945B017C0160E070E023
:1005B00080E89FE329853A854B855C850E9413126C
:1005C00020E030E040EC5FE30E94EC100E94430F1B
:1005D0007A8369838B01000F111FC8010E94C51621
:1005E000D82EC92E8D879E87C8010E94C5161C0172
:1005F000FC01F182E082ED85FE85B182A0822C01B2
:100600002D2D3C2DC9013C01C984DA84EB84FC8486
:1006100042015C0121E030E021C0C701B6014B81FD
:100620005C810E945B018C01C701B6014D815E8136
:100630000E945B01F40191838083F50111830083A3
:10064000C701B60129853A854B855C850E94EC106F
:100650006B017C012F8538892F5F3F4F388B2F87A7
:1006600082E090E0880E991EA80EB91EEF85F889E9
:1006700029813A81E217F30780F2CC24DD24790145
:100680000894E108F10819C00894C11CD11CF201BA
:1006900060817181F30142815381F20122813381B2
:1006A000F301808191810F8118850E94BF0422E0AF
:1006B00030E0620E731E420E531ECE14DF0420F390
:1006C000C1010E9472178D859E850E9472176096E7
:1006D0000FB6F894DEBF0FBECDBFCF91DF911F9153
:1006E0000F91FF90EF90DF90CF90BF90AF909F90D1
:1006F0008F907F906F905F904F903F902F900895D4
:10070000FC01DB014430510539F14530510558F405
:1007100042305105B1F143305105B0F4413051053B
:1007200009F056C00BC046305105D9F1463051058D
:1007300008F14730510509F04BC042C0208131819A
:100740008D919C91119728C0808191819095819580
:100750009F4F9183808308958081918190958195A9
:100760009F4F918380838D919C9111979095819556
:100770009F4F23C080819181909581959F4F918358
:1007800080838D919C911197909581959F4F1196A3
:100790009C938E9320813181918380832D933C9310
:1007A000089580819181909581959F4F9183808359
:1007B0002D913C911197318320838D939C930895C3
:1007C0008D919C911197909581959F4F8D939C93BE
:1007D0000895FC01DB014430510541F145305105DC
:1007E00060F44230510509F446C043305105B0F47D
:1007F0004130510509F056C00BC04630510559F142
:100800004630510508F14730510509F04BC042C050
:10081000208131818D919C91119728C08081918197
:10082000909581959F4F91838083089580819181D8
:10083000909581959F4F918380838D919C91119785
:10084000909581959F4F23C080819181909581954E
:100850009F4F918380838D919C9111979095819565
:100860009F4F11969C938E93208131819183808339
:100870002D933C93089580819181909581959F4F10
:10088000918380832D913C911197318320838D93A7
:100890009C9308958D919C911197909581959F4F70
:1008A0008D939C930895FC01DB01208131818D9112
:1008B0009C911197918380832D933C930895CF92BF
:1008C000DF92EF92FF920F931F93CF93DF93EA0192
:1008D0006901C61AD70AC81BD90BB601882777FD4C
:1008E0008095982F0E944F137B018C01E89417F993
:1008F000BE01882777FD8095982F0E944F139B019A
:10090000AC015F77C801B7010E94BF121816E4F46A
:10091000D7FE0FC04D2F552747FD50954427550F43
:10092000441F552786E090E09C01241B350BA9014C
:100930001CC04D2F552747FD50954427550F441F88
:1009400055274F5F5F4F11C0D7FE08C0D7FD03C0CA
:1009500047E050E00AC044E050E007C0D7FD03C0C4
:1009600040E050E002C043E050E0CA01DF91CF9187
:100970001F910F91FF90EF90DF90CF9008952F92ED
:100980003F924F925F926F927F928F929F92AF921F
:10099000BF92CF92DF92EF92FF920F931F93DF935C
:1009A000CF93CDB7DEB760970FB6F894DEBF0FBE1A
:1009B000CDBF9E838D8378876F835A8749873C8715
:1009C0002B8718014AE250E0409300409093004189
:1009D0008093004190930041809300418BE290E02E
:1009E00080930040709300416093004170930041F8
:1009F000609300418CE290E08093004010930041AE
:100A0000009300416F81788549855A852B853C8507
:100A10008D819E810E945F042C01CE010596BE014E
:100A2000695F7F4FA2010E94E903CE010996BE01D2
:100A3000655F7F4FA2010E94E9036F8078846D811A
:100A40007E8189859A85861B970B2B853C85261987
:100A50003709220F331F5901CC24B7FCC094DC2C7A
:100A60009C01442737FD4095542F86017501E21AF9
:100A7000F30A040B150B4B010894811C911C880F81
:100A8000991FAA2797FDA095BA2FA6019501281BAB
:100A9000390B4A0B5B0B2D873E874F87588B45C020
:100AA00017FF05C0EA0CFB1C0C1D1D1D0BC0089494
:100AB000611C711C8D859E85AF85B889E80EF91E75
:100AC0000A1F1B1F9A8289827C826B82CE0101964B
:100AD000BE016D5F7F4FA2010E94800389819A81D0
:100AE0002B813C81AAE2B0E0A093004090930041AA
:100AF0008093004190930041809300414BE250E08D
:100B000040930040309300412093004130930041D6
:100B1000209300418CE290E08093004030920041AD
:100B2000209200410894811C911C89859A85881522
:100B300099050CF0B5CF60960FB6F894DEBF0FBEE6
:100B4000CDBFCF91DF911F910F91FF90EF90DF907C
:100B5000CF90BF90AF909F908F907F906F905F905D
:100B60004F903F902F9008952AE230E0209300406C
:100B70009093004180930041909300418093004105
:100B80008BE290E0809300407093004160930041BD
:100B900070930041609300418CE290E080930040AC
:100BA00050930041409300410895CF92DF92EF921D
:100BB000FF920F931F936A01C80ED91ED901A60F89
:100BC000B71FEAE2F0E0E0930040D0920041C0920B
:100BD0000041D0920041C0920041EBE2F0E0E0938E
:100BE0000040B0930041A0930041B0930041A09316
:100BF0000041ECE2F0E0E0930040109300410093EC
:100C000000417C01E41AF50AEAE2F0E0E0930040DA
:100C1000F0920041E0920041F0920041E0920041E8
:100C2000EBE2F0E0E0930040B0930041A09300417C
:100C3000B0930041A0930041ECE2F0E0E09300406B
:100C40001093004100930041DB01A21BB30BEAE2C9
:100C5000F0E0E0930040D0920041C0920041D09279
:100C60000041C0920041EBE2F0E0E0930040B0931D
:100C70000041A0930041B0930041A0930041ECE2F9
:100C8000F0E0E09300401093004100930041EAE25D
:100C9000F0E0E0930040F0920041E0920041F092D9
:100CA0000041E0920041EBE2F0E0E0930040B093BD
:100CB0000041A0930041B0930041A0930041ECE2B9
:100CC000F0E0E0930040109300410093004179016F
:100CD000E80EF91EDA01A60FB71FEAE2F0E0E09392
:100CE0000040F0920041E0920041F0920041E09219
:100CF0000041EBE2F0E0E0930040B0930041A093AC
:100D00000041B0930041A0930041ECE2F0E0E09399
:100D100000401093004100930041821B930B2AE294
:100D200030E02093004090930041809300419093E5
:100D30000041809300412BE230E020930040B093CB
:100D40000041A0930041B0930041A09300412CE2E8
:100D500030E0209300401093004100930041641B59
:100D6000750B2AE230E020930040F0920041E092BF
:100D70000041F0920041E09200412BE230E02093EC
:100D80000040709300416093004170930041609374
:100D900000412CE230E0209300401093004100938A
:100DA00000412AE230E0209300409093004180937C
:100DB000004190930041809300418BE290E080934A
:100DC0000040709300416093004170930041609334
:100DD00000418CE290E0809300401093004100932A
:100DE00000411F910F91FF90EF90DF90CF900895F9
:100DF0002F923F924F925F926F927F928F929F922B
:100E0000AF92BF92CF92DF92EF92FF920F931F9318
:100E1000DF93CF93CDB7DEB728970FB6F894DEBF38
:100E20000FBECDBF9E838D831B01F22EE32ED42EE9
:100E3000C52E18870F83622F732F842F952F2EEFC7
:100E40003FEF4FEF5FEF0E946F164B015C0183E0B5
:100E500090E0A0E0B0E0880E991EAA1EBB1E2F2DC8
:100E60003E2D4D2D5C2DC901DA012C013D01CC2414
:100E7000DD24760184E090E0A0E0B0E04BC08D81FD
:100E80009E81B101A60192010F8118850E94D505AE
:100E90000894C11CD11CE11CF11CB7FE0DC086E0FA
:100EA00090E0A0E0B0E0880E991EAA1EBB1E8981CA
:100EB0009A81AB81BC811AC008944108510861082D
:100EC00071088AE090E0A0E0B0E0880E991EAA1EAA
:100ED000BB1ED701C60184199509A609B70952E0BE
:100EE000880F991FAA1FBB1F5A95D1F7880E991E0C
:100EF000AA1EBB1E8D819E81B101A60192010F81A8
:100F000018850E94D50589819A81AB81BC810496A0
:100F1000A11DB11D89839A83AB83BC83C414D504FE
:100F2000E604F7040CF4ABCF28960FB6F894DEBFB6
:100F30000FBECDBFCF91DF911F910F91FF90EF902A
:100F4000DF90CF90BF90AF909F908F907F906F90E9
:100F50005F904F903F902F9008950E946A0A0895E5
:100F60009C01377085E0369527958A95E1F7C90190
:100F70000895892F86958695869590E008959C0121
:100F80002F713070C901089595E0660F771F9A950B
:100F9000E1F7640F751F382F330F330F330F20E045
:100FA000620F731FCB0108956F927F928F929F9271
:100FB000AF92BF92CF92DF92EF92FF920F931F9367
:100FC0007C015A016B01BC01672F772766956695F6
:100FD000669580E090E00E940114A60195010E94B0
:100FE000191120E030E040E05FE30E94EC100E9425
:100FF000430F762E672EB7017770F5E076956795EB
:10100000FA95E1F780E090E00E940114A6019501B5
:101010000E94191120E030E040E05FE30E94EC10F4
:101020000E94430F962E872E8FE1E822FF2400E0D6
:1010300010E0C801B7010E940114A60195010E94A9
:10104000191120E030E040E05FE30E94EC100E94C4
:10105000430F6032710510F06FE170E0872D962D1F
:101060009C012032310510F02FE130E0A901542F0E
:101070004427550F550F550F460F571F892D982D93
:101080009C012034310510F02FE330E065E0220FA1
:10109000331F6A95E1F7240F351FC9011F910F9186
:1010A000FF90EF90DF90CF90BF90AF909F908F9088
:1010B0007F906F90089593E89093B00091E09093A3
:1010C000B1008093B30008959C0190932302809314
:1010D000220286E390E0809300402115310589F4D7
:1010E00080EF90E090931F0280931E0280E491E0D5
:1010F000909321028093200288E490E08093004145
:101100003BC02130310589F480E491E090931F02C7
:1011100080931E0280EF90E0909321028093200242
:1011200088EE90E08093004127C02230310589F499
:1011300080EF90E090931F0280931E0280E491E084
:10114000909321028093200288E890E080930041F0
:1011500013C02330310581F480E491E090931F02A5
:1011600080931E0280EF90E09093210280932002F2
:1011700088E290E0809300418AE290E08093004012
:1011800020E030E0309300412093004180911E0226
:1011900090911F02019790930041809300418BE250
:1011A00090E0809300403093004120930041809173
:1011B0002002909121020197909300418093004179
:1011C00008951F93682F873718F010E066E711C065
:1011D000883010F468E00CC08D3310F010E009C0C6
:1011E0008F3110F011E005C0803110F012E001C025
:1011F00013E081EB90E0809300401093004170E099
:10120000882777FD8095982F0E944F139B01AC0192
:1012100060E070E080EF94E40E9413120E94430F9C
:1012200070E002C0759567951A95E2F760930041EA
:101230001F9108950F931F93DF93CF93CDB7DEB720
:1012400028970FB6F894DEBF0FBECDBF29833A832F
:101250004B835C836D837E838F83988769817A81DA
:101260002B813C81ED81FE814F8158858AE290E09F
:10127000809300407093004160930041309300419F
:10128000209300418BE290E080930040F093004176
:10129000E093004150930041409300418CE290E084
:1012A000809300402F5F3F4F261B370B4F5F5F4FF0
:1012B0004E1B5F0B24173507C8F4842F877090E00E
:1012C000829FB001839F700D929F700D1124F3E0F7
:1012D00056954795FA95E1F7842F90E0829FF001AB
:1012E000839FF00D929FF00D112418C0822F8770FC
:1012F00090E0849FB001859F700D949F700D112424
:10130000E3E036952795EA95E1F7822F90E0849FF8
:10131000F001859FF00D949FF00D1124862F8770AA
:1013200005C0109300410093004181508823C9F704
:10133000CB0123E0969587952A95E1F78E0F9F1FA5
:1013400021C010930041009300411093004100938D
:10135000004110930041009300411093004100931D
:10136000004110930041009300411093004100930D
:1013700000411093004100930041109300410093FD
:10138000004101970097E9F628960FB6F894DEBF62
:101390000FBECDBFCF91DF911F910F910895EF92B6
:1013A000FF920F931F93DF93CF93CDB7DEB72897AC
:1013B0000FB6F894DEBF0FBECDBF29833A834B83AF
:1013C0005C836D837E838F83988729813A81AB818B
:1013D000BC81ED80FE806F8178858AE290E0809309
:1013E00000403093004120930041B0930041A0930E
:1013F00000418BE290E080930040F0920041E09247
:10140000004170930041609300418CE290E0809332
:1014100000400FC0F801819191918F01909300419C
:10142000809300414F5F5F4F6417750798F72F5FF8
:101430003F4FA217B30710F0A701F6CF28960FB6BB
:10144000F894DEBF0FBECDBFCF91DF911F910F91FA
:10145000FF90EF9008950F931F93DF93CF93CDB735
:10146000DEB728970FB6F894DEBF0FBECDBF10923F
:101470002502109224021092270210922602209137
:101480001E0230911F022150304080912002909125
:10149000210201971A821982422F3C832B831E82DC
:1014A0001D8298878F8300912A0210912B02298137
:1014B0003A815C816D817E8198850E941A09289607
:1014C0000FB6F894DEBF0FBECDBFCF91DF911F9155
:1014D0000F91089586E08093750080E880937400F2
:1014E0003F9A249A80ED97E00197F1F7479880E4BE
:1014F0009CE90197F1F7479A80EB94E028EC30E003
:10150000F9013197F1F70197D9F788E290E08093DC
:10151000004081E190E08093004088E592E028EC73
:1015200030E0F9013197F1F70197D9F741E050E048
:101530008BEC90E0809300404093004180EC90E081
:101540008093004088E096E29093004180930041B0
:1015500020E130E081EC90E0809300402093004156
:1015600085EC90E0809300408EE395E390930041FA
:101570008093004125EB30E087EC90E080930040C1
:101580002093004186EF90E080930040409300411B
:1015900080E090E0909300418093004125E530E0A9
:1015A0008AE390E0809300402093004181E090E046
:1015B0000E9464080E942B0A1092250210922402B5
:1015C000109227021092260210922B0210922A02E9
:1015D0008FEF9FEF909329028093280289E290E099
:1015E0008093004084EF91E028EC30E0F9013197DE
:1015F000F1F70197D9F780E090E025E330E0209300
:1016000000408093004180916A00806280936A006C
:101610002C9A0895CF92DF92EF92FF920F931F932F
:10162000CF93DF93982F40912402509125028A0195
:101630000C5F1F4F20912602309127028A30A9F4B7
:101640001092250210922402285F3F4F3093270208
:1016500020932602809120029091210228173907B9
:1016600008F489C00E942B0A86C080528F3508F08A
:1016700082C0E901279685E09802F0011124E85024
:10168000F0408BE290E08093004030930041209343
:101690000041D0930041C0930041BAE2CB2ED12C3F
:1016A000ACE2EA2EF12C29C0C092004050930041D8
:1016B000409300415093004140930041E09200402C
:1016C000B491B901A1E013C08A2F8B2329F0809136
:1016D00028029091290204C080912A0290912B0245
:1016E00090930041809300416F5F7F4FAA0FC61710
:1016F000D70750F731964F5F5F4F04171507A0F6D5
:101700008AE290E080930040509300414093004172
:1017100050930041409300418CE290E08093004060
:101720000AC080912A0290912B02909300418093ED
:1017300000412F5F3F4FC217D30798F780912402D3
:101740009091250206969093250280932402209181
:101750001E0230911F028217930768F01092250233
:10176000109224028091260290912702089690936D
:10177000270280932602DF91CF911F910F91FF9056
:10178000EF90DF90CF9008951F93CF93DF93EC01FC
:1017900010E003C00E940A0B1F5FFE01E10FF11D64
:1017A00080818823B9F7DF91CF911F91089590939D
:1017B00025028093240270932702609326020895E5
:1017C000909329028093280270932B0260932A023F
:1017D00008951F93CF93DF93EC01709325026093DC
:1017E0002402509327024093260210E003C00E9477
:1017F0000A0B1F5FFE01E10FF11D80818823B9F7FD
:10180000DF91CF911F9108950F931F93DF93CF9393
:10181000CDB7DEB760970FB6F894DEBF0FBECDBF71
:1018200080E880936100109261000E94AD0780EA19
:1018300090E068E770E024E630E040E050E000EE41
:101840001FEF0E94F80683E790E06BE470E02FE062
:1018500030E040E050E00E94F8068DEC90E06BE450
:1018600070E02FE030E040E050E00E94F806DE013A
:101870001196E8E0F1E088E001900D928150E1F7E7
:10188000DE011996E0E0F1E088E001900D928150D0
:10189000E1F7CE010196BE01675F7F4F40EE5FEF3B
:1018A0000DEC1CEC2CEC3DE30E94A00260960FB600
:1018B000F894DEBF0FBECDBFCF91DF911F910F9186
:1018C00008950E94040C80E090E00895CF93DF9388
:1018D000FC012081318142815381EB018881998112
:1018E000AA81BB8180839183A283B383FB01208380
:1018F000318342835383DF91CF910895EF92FF921A
:101900000F931F937B018C0120E030E040E050E01A
:101910000E941F1388238CF4C801B7010E94CA17C4
:101920009B01AC01C801B7010E94BB109B01AC0137
:1019300060E070E080E89FE308C0C801B7010E9442
:10194000CA179B01AC01C801B7010E94BB10E62F6A
:101950002E2F372F482F592FB901CA011F910F91F0
:10196000FF90EF9008950E947E0C9B01AC0160E017
:1019700070E080E89FE30E94BB1008952F923F9291
:101980004F925F926F927F928F929F92AF92BF928F
:10199000CF92DF92EF92FF920F931F93DF93CF933B
:1019A000CDB7DEB7A0970FB6F894DEBF0FBECDBFA0
:1019B0002B013C01298B3A8B4B8B5C8BED8AFE8A89
:1019C0000F8B188F1401C601B5010E94BB107B015B
:1019D0008C01E89417F96D897E898F89988DA30110
:1019E00092010E94BB109B01AC015F77C801B70157
:1019F0000E94BB106D877E878F87988B20E030E038
:101A000040E050E00E94BF121816BCF489899A8900
:101A10006B897C89498A5A8A6B8A7C8AAB01DA0194
:101A20002C013D01C501B601AD88BE88CF88D88C98
:101A3000DB018D8B9E8BAF8BB88FC301B2012D89DB
:101A40003E894F89588D0E94BF121816BCF48D89AB
:101A50009E896F89788D4D8A5E8A6F8A788EAB01F8
:101A6000DA012C013D01C501B601A988BA88CB88ED
:101A7000DC88DB01898B9A8BAB8BBC8BC601B501F3
:101A800029893A894B895C890E94BB107B018C01B2
:101A90006D897E898F89988DA30192010E94BB1068
:101AA0009B01AC01C801B7010E94131269877A87B4
:101AB0008B879C87C301B20120E030E040E05FE308
:101AC0000E94EC107B018C010E94AD13698F7A8F0C
:101AD0008B8F9C8F298D3A8DB901882777FD809552
:101AE000982F0E944F13A30192010E94BB109B01EB
:101AF000AC0169857A858B859C850E9419119B01B3
:101B0000AC0169897A898B899C890E94EC106D836C
:101B10007E838F839887C801B7010E94B30C2B0185
:101B20003C01898D9A8D9C838B836D817E818F8111
:101B300098850E94430F7B018C014B016D857E854A
:101B40008F85988920E030E040E050E00E94BF128D
:101B50000894811C911C1816ACF56D817E818F81D3
:101B600098850E94B30CA30192010E94191120E0F4
:101B700030E040E85FE30E94EC10AB01BC01C10122
:101B80000E94D407AC01C701698D7A8D0E94B4050B
:101B90006D817E818F8198850E947E0CA3019201C8
:101BA0000E94191120E030E040E85FE30E94EC1051
:101BB000AB01BC01C1010E94D407AC01C401698D15
:101BC0007A8D34C06D817E818F8198850E94B30C9F
:101BD000A30192010E94191120E030E040E85FE388
:101BE0000E94EC10AB01BC01C1010E94D407AC0102
:101BF000898D9A8DB7010E94B4056D817E818F8198
:101C000098850E947E0CA30192010E94191120E088
:101C100030E040E85FE30E94EC10AB01BC01C10181
:101C20000E94D407AC01898D9A8DB4010E94B4053D
:101C30006D897E898F89988D20E030E040E05FE3F8
:101C40000E94EC107B018C010E94AD136D8F7E8F82
:101C50008F8F98A32D8D3E8DB901882777FD8095B4
:101C6000982F0E944F132D893E894F89588D0E94CD
:101C7000BB109B01AC0169857A858B859C850E9490
:101C800019119B01AC01C601B5010E94EC105B016A
:101C90006C01C801B7010E94B30C2B013C018D8D72
:101CA0009E8D9A838983C601B5010E94430F7B01F3
:101CB0008C014B016D857E858F85988920E030E011
:101CC00040E050E00E94BF120894811C911C18163D
:101CD0002CF5C601B5010E94B30CA30192010E942C
:101CE0001911AB01BC01C1010E94D407AC01C701AD
:101CF0006D8D7E8D0E94B405C601B5010E947E0CDB
:101D0000A30192010E941911AB01BC01C1010E9403
:101D1000D407AC01C4016D8D7E8D24C0C601B50110
:101D20000E94B30CA30192010E941911AB01BC01E6
:101D3000C1010E94D407AC018D8D9E8DB7010E9418
:101D4000B405C601B5010E947E0CA30192010E9458
:101D50001911AB01BC01C1010E94D407AC018D8DEA
:101D60009E8DB4010E94B4056D817E818F8198851E
:101D700029853A854B855C850E94EC104B015C01FE
:101D80006B807C805EC06D857E858F85988920E024
:101D900030E040E050E00E94BF12181614F5C50173
:101DA000B4010E94430F7B018C01C501B4010E9464
:101DB000B30CAB01BC01C1010E94D407AC01C70147
:101DC000B3010E94B405C501B4010E947E0CAB01B1
:101DD000BC01C1010E94D407AC01C7010196B30147
:101DE00024C0C501B4010E94430F7B018C016B012B
:101DF000C501B4010E94B30CAB01BC01C1010E943A
:101E0000D407AC01C301B7010E94B405C501B401F8
:101E10000E947E0CAB01BC01C1010E94D407AC0141
:101E20000894C11CD11CC301B6010E94B405C501B0
:101E3000B40129853A854B855C850E94EC104B01E5
:101E40005C010894611C711C29813A816216730639
:101E500008F499CFA0960FB6F894DEBF0FBECDBFA1
:101E6000CF91DF911F910F91FF90EF90DF90CF9076
:101E7000BF90AF909F908F907F906F905F904F90AA
:101E80003F902F900895EF92FF920F931F937B0145
:101E90008C0120E030E040E05FE40E94EF128823F4
:101EA0008CF0C801B70120E030E040E05FE40E9420
:101EB000BB100E94AD139B01AC012050304040404C
:101EC000504806C0C801B7010E94AD139B01AC0188
:101ED000B901CA011F910F91FF90EF900895A0E002
:101EE000B0E0E5E7FFE00C948E16DC012B01FA016F
:101EF0009C91923008F439C1EB018881823008F45A
:101F000033C1943069F4843009F02FC111969C914B
:101F100011978981981709F428C1A0E1B1E025C182
:101F2000843009F421C18230A9F4923009F01DC136
:101F30009A01AD0188E0EA010990AE01E901099238
:101F40009E018150C1F7E201898111969C918923FC
:101F5000818308C1923009F407C112962D903C90FC
:101F60001397EB018A819B811496AD90BD90CD9023
:101F7000DC901797EC80FD800E811F819101281B5A
:101F8000390BB90137FF04C066277727621B730B33
:101F9000603271050CF061C0121613066CF5370142
:101FA0004801062E04C096948794779467940A9407
:101FB000D2F721E030E040E050E004C0220F331FB0
:101FC000441F551F6A95D2F7215030404040504081
:101FD0002E213F2140235123211531054105510573
:101FE00021F021E030E040E050E079018A01E6286C
:101FF000F728082919293CC0232BD1F1260E371EBA
:1020000035014601062E04C0969487947794679410
:102010000A94D2F721E030E040E050E004C0220F03
:10202000331F441F551F6A95D2F72150304040405E
:1020300050402A213B214C215D21211531054105CC
:10204000510521F021E030E040E050E059016A0103
:10205000A628B728C828D9280BC0821593052CF0CC
:102060001C01AA24BB24650103C0EE24FF248701C0
:1020700011969C91D20111968C91981709F445C044
:10208000992339F0A80197012A193B094C095D09E8
:1020900006C0A60195012E193F09400B510B57FDB3
:1020A00008C011823382228224833583468357837A
:1020B0001DC081E081833382228288279927DC0139
:1020C000821B930BA40BB50B84839583A683B783E4
:1020D0000DC0220F331F441F551F248335834683B1
:1020E00057838281938101979383828324813581F1
:1020F00046815781DA01C9010197A109B1098F5FB2
:102100009F4FAF4FBF4328F30BC09183338222828E
:10211000EA0CFB1C0C1D1D1DE482F582068317834F
:1021200083E08083248135814681578157FF1AC01F
:10213000C901AA2797FDA095BA2F81709070A07051
:10214000B0705695479537952795822B932BA42BE6
:10215000B52B84839583A683B7838281938101966F
:1021600093838283DF0101C0D201CD01CDB7DEB7F9
:10217000E2E10C94AA16A0E2B0E0E1ECF0E10C94EC
:102180009A1669837A838B839C832D833E834F8346
:102190005887E9E0EE2EF12CEC0EFD1ECE010196E3
:1021A000B7010E949E158E010F5E1F4FCE0105964E
:1021B000B8010E949E158A8991E089278A8BC70100
:1021C000B801AE01475E5F4F0E946F0F0E94C914B5
:1021D000A096E6E00C94B616A0E2B0E0E2EFF0E1E3
:1021E0000C949A1669837A838B839C832D833E8318
:1021F0004F835887F9E0EF2EF12CEC0EFD1ECE0137
:102200000196B7010E949E158E010F5E1F4FCE01F1
:102210000596B8010E949E15C701B801AE01475E40
:102220005F4F0E946F0F0E94C914A096E6E00C94C5
:10223000B616A0E2B0E0EFE1F1E10C948E166983EE
:102240007A838B839C832D833E834F835887CE0173
:102250000196BE01675F7F4F0E949E15CE010596D5
:10226000BE016F5E7F4F0E949E159985923088F067
:1022700089898230C8F0943019F4823051F404C056
:10228000843029F4923081F480E191E0C6C092302C
:1022900049F420E09A858A89981321E02A87CE01A3
:1022A0000996BBC0823049F420E09A858A89981348
:1022B00021E02A8BCE014196B0C02D843E844F840C
:1022C00058886D887E888F88988CEE24FF2487013B
:1022D000AA24BB24650140E050E060E070E0E0E04B
:1022E000F0E0C10181709070892BE9F0E60CF71CD9
:1022F000081D191D9A01AB012A0D3B1D4C1D5D1DCA
:1023000080E090E0A0E0B0E0E614F70408051905CD
:1023100020F481E090E0A0E0B0E0BA01A901480F0C
:10232000591F6A1F7B1FAA0CBB1CCC1CDD1C97FE0F
:1023300008C081E090E0A0E0B0E0A82AB92ACA2A4B
:10234000DB2A3196E032F10549F0660C771C881CD7
:10235000991C5694479437942794C3CFFA85EA89F9
:102360002B893C898B859C85280F391F2E5F3F4F19
:1023700017C0CA0181709070892B61F0169507957E
:10238000F794E79480E090E0A0E0B0E8E82AF92A2A
:102390000A2B1B2B76956795579547952F5F3F4FD7
:1023A00077FDE7CF0CC0440F551F661F771F17FD41
:1023B0004160EE0CFF1C001F111F215030404030C7
:1023C00090E0590790E0690790E4790760F32B8F5C
:1023D0003C8FDB01CA018F779070A070B0708034A1
:1023E0009105A105B10561F447FD0AC0E114F104AE
:1023F0000105110529F0405C5F4F6F4F7F4F40781A
:102400001A8EFE1711F081E08A8F4D8F5E8F6F8FCD
:1024100078A383E0898FCE0149960E94C914A096C3
:10242000E2E10C94AA16A8E1B0E0E9E1F2E10C9433
:10243000961669837A838B839C832D833E834F8397
:102440005887B9E0EB2EF12CEC0EFD1ECE01019663
:10245000B7010E949E158E010F5E1F4FCE0105969B
:10246000B8010E949E152985223008F47EC0398962
:10247000323010F4B8017CC08A859A8989278A870E
:10248000243011F0223031F4231709F06EC060E1DE
:1024900071E06EC0343039F41D861E861F86188A9E
:1024A0001C861B8604C0323021F484E08987B70182
:1024B0005FC02B853C858B899C89281B390B3C8709
:1024C0002B87ED84FE840F851889AD88BE88CF8860
:1024D000D88CEA14FB040C051D0540F4EE0CFF1C1F
:1024E000001F111F215030403C872B8720E030E037
:1024F00040E050E080E090E0A0E0B0E460E070E018
:10250000EA14FB040C051D0540F0282B392B4A2B3F
:102510005B2BEA18FB080C091D09B695A795979542
:102520008795EE0CFF1C001F111F6F5F7F4F6F31EF
:10253000710531F7DA01C9018F779070A070B07022
:1025400080349105A105B10561F427FD0AC0E114AD
:10255000F1040105110529F0205C3F4F4F4F5F4FFB
:1025600020782D873E874F87588BBE01675F7F4F4E
:10257000CB010E94C9146896EAE00C94B216A8E157
:10258000B0E0E5ECF2E10C949A1669837A838B83D0
:102590009C832D833E834F83588789E0E82EF12C5E
:1025A000EC0EFD1ECE010196B7010E949E158E0114
:1025B0000F5E1F4FCE010596B8010E949E158985BA
:1025C000823040F08989823028F0C701B8010E942A
:1025D000161601C08FEF6896E6E00C94B616A8E1D7
:1025E000B0E0E5EFF2E10C949A1669837A838B836D
:1025F0009C832D833E834F83588789E0E82EF12CFE
:10260000EC0EFD1ECE010196B7010E949E158E01B3
:102610000F5E1F4FCE010596B8010E949E15898559
:10262000823040F08989823028F0C701B8010E94C9
:10263000161601C08FEF6896E6E00C94B616A8E176
:10264000B0E0E5E2F3E10C949A1669837A838B8318
:102650009C832D833E834F83588789E0E82EF12C9D
:10266000EC0EFD1ECE010196B7010E949E158E0153
:102670000F5E1F4FCE010596B8010E949E158985F9
:10268000823040F08989823028F0C701B8010E9469
:10269000161601C081E06896E6E00C94B616A8E034
:1026A000B0E0E5E5F3E10C9497169B01AC0183E003
:1026B0008983DA01C9018827B7FD83959927AA275D
:1026C000BB27B82E211531054105510519F482E0CB
:1026D00089833AC08823A9F0203080E0380780E061
:1026E000480780E8580729F460E070E080E09FEC3C
:1026F00030C0EE24FF248701E21AF30A040B150B05
:1027000002C079018A018EE1C82ED12CDC82CB82F5
:10271000ED82FE820F831887C801B7010E947A14E8
:1027200001971816190684F4082E04C0EE0CFF1C3D
:10273000001F111F0A94D2F7ED82FE820F831887C3
:10274000C81AD90ADC82CB82BA82CE0101960E94D5
:10275000C9142896E9E00C94B316ACE0B0E0E3EBC2
:10276000F3E10C949E1669837A838B839C83CE015C
:102770000196BE016B5F7F4F0E949E158D81823056
:1027800061F1823050F1843021F48E81882351F13F
:102790002EC02F81388537FD20C06E812F31310545
:1027A0001CF06623F9F023C08EE190E0821B930BAE
:1027B00029853A854B855C8504C0569547953795A4
:1027C00027958A95D2F76623B1F0509540953095BC
:1027D00021953F4F4F4F5F4F0EC020E030E040E06B
:1027E00050E009C02FEF3FEF4FEF5FE704C020E05C
:1027F00030E040E050E8B901CA012C96E2E00C94C8
:10280000BA16A8E0B0E0E7E0F4E10C9496167B017C
:102810008C01611571058105910519F482E08983A8
:1028200060C083E089838EE1C82ED12CDC82CB820C
:10283000ED82FE820F831887C801B7010E947A14C7
:10284000FC013197F7FF3BC0222733272E1B3F0B9C
:1028500057016801022E04C0D694C794B794A79478
:102860000A94D2F740E050E060E070E081E090E050
:10287000A0E0B0E004C0880F991FAA1FBB1F2A95D3
:10288000D2F70197A109B1098E219F21A023B1237D
:102890000097A105B10521F041E050E060E070E053
:1028A0004A295B296C297D294D835E836F83788754
:1028B0008EE190E08E1B9F0B9C838B8312C0309720
:1028C00081F00E2E04C0EE0CFF1C001F111F0A9495
:1028D000D2F7ED82FE820F831887CE1ADF0ADC82E0
:1028E000CB821A82CE0101960E94C9142896EAE092
:1028F0000C94B216EF92FF920F931F937B018C0101
:1029000080E0E81680E0F80681E0080780E018071C
:1029100088F48FEFE816F1040105110531F028F075
:1029200088E090E0A0E0B0E017C080E090E0A0E098
:10293000B0E012C080E0E81680E0F80680E008070A
:1029400081E0180728F088E190E0A0E0B0E004C042
:1029500080E190E0A0E0B0E020E230E040E050E034
:10296000281B390B4A0B5B0B04C016950795F7948F
:10297000E7948A95D2F7F701E85EFE4F8081281B25
:10298000310941095109C9011F910F91FF90EF9041
:102990000895DF92EF92FF920F931F93FC01E48062
:1029A000F58006811781D1808081823048F480E0F3
:1029B00090E0A0E1B0E0E82AF92A0A2B1B2BA5C081
:1029C000843009F49FC0823021F4EE24FF24870173
:1029D00005C0E114F1040105110519F4E0E0F0E08F
:1029E00096C0628173819FEF623879070CF05BC0FB
:1029F00022E83FEF261B370B2A3131052CF020E06F
:102A000030E040E050E02AC0B801A701022E04C027
:102A100076956795579547950A94D2F781E090E0AF
:102A2000A0E0B0E004C0880F991FAA1FBB1F2A9521
:102A3000D2F70197A109B1098E219F21A023B123CB
:102A40000097A105B10521F081E090E0A0E0B0E0A1
:102A50009A01AB01282B392B4A2B5B2BDA01C901D8
:102A60008F779070A070B07080349105A105B1058A
:102A700039F427FF09C0205C3F4F4F4F5F4F04C020
:102A8000215C3F4F4F4F5F4FE0E0F0E02030A0E08F
:102A90003A07A0E04A07A0E45A0710F0E1E0F0E0AE
:102AA00079018A0127C06038710564F5FB01E1589E
:102AB000FF4FD801C7018F779070A070B07080343D
:102AC0009105A105B10539F4E7FE0DC080E490E061
:102AD000A0E0B0E004C08FE390E0A0E0B0E0E80E3A
:102AE000F91E0A1F1B1F17FF05C016950795F794BF
:102AF000E794319687E016950795F794E7948A95C1
:102B0000D1F705C0EE24FF248701EFEFF0E06E2F30
:102B1000679566276795902F9F77D794DD24D79484
:102B20008E2F8695492F462B582F5D29B701CA0154
:102B30001F910F91FF90EF90DF900895FC01DB0152
:102B4000408151812281622F6F7770E0221F2227FE
:102B5000221F9381892F880F822B282F30E0991F05
:102B60009927991F11969C93119721153105A9F565
:102B7000411551056105710511F482E037C082E805
:102B80009FEF13969C938E9312979A01AB0167E087
:102B9000220F331F441F551F6A95D1F783E08C9392
:102BA0000DC0220F331F441F551F12968D919C910B
:102BB0001397019713969C938E931297203080E081
:102BC000380780E0480780E4580758F314962D939F
:102BD0003D934D935C93179708952F3F310579F4FA
:102BE000411551056105710519F484E08C93089530
:102BF00064FF03C081E08C9312C01C9210C02F5759
:102C0000304013963C932E93129783E08C9387E089
:102C1000440F551F661F771F8A95D1F7706414966D
:102C20004D935D936D937C93179708951F93DC01EB
:102C3000FB019C91923008F447C08081823008F4F7
:102C400043C0943051F411961C91843099F58181E0
:102C5000682F70E0611B71093FC0843021F0923011
:102C600031F48230B9F18181882389F12DC0119628
:102C70001C9111978230F1F081811817D9F41296C6
:102C80002D913C911397828193818217930794F041
:102C900028173907BCF014968D919D910D90BC9129
:102CA000A02D2481358146815781281739074A078D
:102CB0005B0718F4112341F00AC082179307A40799
:102CC000B50740F4112319F061E070E005C06FEF23
:102CD0007FEF02C060E070E0CB011F910895629F1A
:102CE000D001739FF001829FE00DF11D649FE00D04
:102CF000F11D929FF00D839FF00D749FF00D659F65
:102D0000F00D9927729FB00DE11DF91F639FB00D63
:102D1000E11DF91FBD01CF01112408952F923F92AB
:102D20004F925F926F927F928F929F92AF92BF92DB
:102D3000CF92DF92EF92FF920F931F93CF93DF9387
:102D4000CDB7DEB7CA1BDB0B0FB6F894DEBF0FBEE4
:102D5000CDBF09942A88398848885F846E847D8431
:102D60008C849B84AA84B984C884DF80EE80FD8033
:102D70000C811B81AA81B981CE0FD11D0FB6F894A9
:102D8000DEBF0FBECDBFED010895CF93DF93BC0131
:102D90008230910510F462E070E0A0912E02B091B3
:102DA0002F02ED01E0E0F0E040E050E021C088813A
:102DB00099818617970769F48A819B81309719F06A
:102DC0009383828304C090932F0280932E02FE018E
:102DD00034C06817790738F44115510519F0841784
:102DE000950708F4AC01FE018A819B819C01E901F1
:102DF0002097E9F641155105A9F1CA01861B970BE9
:102E0000049708F4BA01E0E0F0E02AC08D919C91AB
:102E1000119784179507F9F46417750781F41296D2
:102E20008D919C911397309719F09383828304C0FE
:102E300090932F0280932E02FD0132964FC0CA015B
:102E4000861B970BFD01E80FF91F619371930297A1
:102E50008D939C9343C0FD01828193819C01D90194
:102E60001097A1F680912C0290912D02892B41F4AC
:102E700080911A0290911B0290932D0280932C0254
:102E800040911C0250911D024115510541F44DB76E
:102E90005EB78091180290911902481B590B20913E
:102EA0002C0230912D0224173507B0F4CA01821B81
:102EB000930B8617970780F0AB014E5F5F4F841727
:102EC000950750F0420F531F50932D0240932C0250
:102ED000F9016193719302C0E0E0F0E0CF01DF916E
:102EE000CF910895CF93DF93009709F450C0EC0180
:102EF00022971B821A82A0912E02B0912F02109766
:102F000009F140E050E0AC17BD0708F1BB83AA838C
:102F1000FE0121913191E20FF31FAE17BF0779F443
:102F20008D919C911197280F391F2E5F3F4F398348
:102F3000288312968D919C9113979B838A834115C8
:102F4000510571F4D0932F02C0932E0220C0129627
:102F50008D919C911397AD01009711F0DC01D3CFB7
:102F6000FA01D383C28321913191E20FF31FCE176F
:102F7000DF0769F488819981280F391F2E5F3F4F41
:102F8000FA01318320838A819B8193838283DF913D
:102F9000CF9108953BD080F09F3740F491110EF00F
:102FA0004DC060E070E080E89FEB089526F41B16AA
:102FB000611D711D811D01C01BC0882371F4772321
:102FC00021F09850872B762F07C0662311F499279C
:102FD0000DC09051862B70E060E02AF09A95660F44
:102FE000771F881FDAF7880F9695879597F90895C8
:102FF0009F3F31F0915020F4879577956795B7956D
:10300000880F911D9695879597F9089525D0A0F082
:10301000BEE7B91788F4BB279F3860F41616B11DB8
:10302000672F782F8827985FF7CF869577956795D4
:10303000B11D93959639C8F30895E894BB27662788
:103040007727CB0197F9089557FD9058440F551FE6
:1030500059F05F3F71F04795880F97FB991F61F01A
:103060009F3F79F087950895121613061406551F91
:10307000F2CF4695F1DF08C0161617061806991FFD
:10308000F1CF86957105610508940895F894FFCFF6
:10309000A500C300C300A50073008700B900CD00E0
:1030A000000000000000000000010202030303030F
:1030B00004040404040404040505050505050505C8
:1030C00005050505050505050606060606060606A8
:1030D0000606060606060606060606060606060690
:1030E0000606060606060606070707070707070778
:1030F0000707070707070707070707070707070760
:10310000070707070707070707070707070707074F
:10311000070707070707070707070707070707073F
:103120000707070707070707080808080808080827
:10313000080808080808080808080808080808080F
:1031400008080808080808080808080808080808FF
:1031500008080808080808080808080808080808EF
:1031600008080808080808080808080808080808DF
:1031700008080808080808080808080808080808CF
:1031800008080808080808080808080808080808BF
:1031900008080808080808080808080808080808AF
:0E31A00008080808080808082000300200008F
:00000001FF
